{
  "contractName": "PumpAndDump",
  "abi": [
    {
      "inputs": [],
      "payable": false,
      "stateMutability": "nonpayable",
      "type": "constructor"
    },
    {
      "payable": true,
      "stateMutability": "payable",
      "type": "fallback"
    },
    {
      "constant": false,
      "inputs": [],
      "name": "kill",
      "outputs": [],
      "payable": false,
      "stateMutability": "nonpayable",
      "type": "function"
    },
    {
      "constant": true,
      "inputs": [],
      "name": "getNewCoinFee",
      "outputs": [
        {
          "name": "",
          "type": "uint256"
        }
      ],
      "payable": false,
      "stateMutability": "view",
      "type": "function"
    },
    {
      "constant": true,
      "inputs": [
        {
          "name": "newId",
          "type": "uint16"
        }
      ],
      "name": "isCoinIdUnique",
      "outputs": [
        {
          "name": "",
          "type": "bool"
        }
      ],
      "payable": false,
      "stateMutability": "view",
      "type": "function"
    },
    {
      "constant": false,
      "inputs": [
        {
          "name": "id",
          "type": "uint16"
        },
        {
          "name": "name",
          "type": "string"
        }
      ],
      "name": "createCoin",
      "outputs": [],
      "payable": true,
      "stateMutability": "payable",
      "type": "function"
    },
    {
      "constant": true,
      "inputs": [],
      "name": "getCoinIds",
      "outputs": [
        {
          "name": "",
          "type": "uint16[]"
        }
      ],
      "payable": false,
      "stateMutability": "view",
      "type": "function"
    },
    {
      "constant": true,
      "inputs": [
        {
          "name": "coinId",
          "type": "uint16"
        }
      ],
      "name": "getCoinInfoFromId",
      "outputs": [
        {
          "name": "",
          "type": "string"
        },
        {
          "name": "",
          "type": "uint256"
        },
        {
          "name": "",
          "type": "uint256"
        },
        {
          "name": "",
          "type": "address[]"
        }
      ],
      "payable": false,
      "stateMutability": "view",
      "type": "function"
    },
    {
      "constant": true,
      "inputs": [
        {
          "name": "coinId",
          "type": "uint16"
        },
        {
          "name": "userIndex",
          "type": "uint256"
        }
      ],
      "name": "getUserCoinMarketValue",
      "outputs": [
        {
          "name": "",
          "type": "uint256"
        }
      ],
      "payable": false,
      "stateMutability": "view",
      "type": "function"
    },
    {
      "constant": true,
      "inputs": [
        {
          "name": "sender",
          "type": "address"
        },
        {
          "name": "investors",
          "type": "address[]"
        }
      ],
      "name": "isSenderInvestor",
      "outputs": [
        {
          "name": "",
          "type": "bool"
        }
      ],
      "payable": false,
      "stateMutability": "pure",
      "type": "function"
    },
    {
      "constant": false,
      "inputs": [
        {
          "name": "coinId",
          "type": "uint16"
        }
      ],
      "name": "buyCoin",
      "outputs": [],
      "payable": true,
      "stateMutability": "payable",
      "type": "function"
    },
    {
      "constant": false,
      "inputs": [
        {
          "name": "coinId",
          "type": "uint16"
        }
      ],
      "name": "sellCoin",
      "outputs": [],
      "payable": false,
      "stateMutability": "nonpayable",
      "type": "function"
    },
    {
      "constant": true,
      "inputs": [],
      "name": "getDevFees",
      "outputs": [
        {
          "name": "",
          "type": "uint256"
        }
      ],
      "payable": false,
      "stateMutability": "view",
      "type": "function"
    },
    {
      "constant": false,
      "inputs": [],
      "name": "collectDevFees",
      "outputs": [],
      "payable": false,
      "stateMutability": "nonpayable",
      "type": "function"
    }
  ],
  "bytecode": "0x60806040526611c37937e0800060015566038d7ea4c6800060025566038d7ea4c68000600355655af3107a4000600455600060055534801561004057600080fd5b50336000806101000a81548173ffffffffffffffffffffffffffffffffffffffff021916908373ffffffffffffffffffffffffffffffffffffffff160217905550611512806100906000396000f3006080604052600436106100ba576000357c0100000000000000000000000000000000000000000000000000000000900463ffffffff1680630c9a6c24146100bc578063168b62311461010b578063270d13fb1461017757806341c0e1b5146101c05780634c2db6d8146101d75780635054e8bf146101fb5780639017006e14610212578063ad9657f41461023d578063d4d2af8d146102a7578063e079e334146102d8578063e9922f1214610303578063f00d732614610403575b005b3480156100c857600080fd5b506100f5600480360381019080803561ffff169060200190929190803590602001909291905050506104a1565b6040518082815260200191505060405180910390f35b34801561011757600080fd5b5061012061059b565b6040518080602001828103825283818151815260200191508051906020019060200280838360005b83811015610163578082015181840152602081019050610148565b505050509050019250505060405180910390f35b34801561018357600080fd5b506101a6600480360381019080803561ffff16906020019092919050505061061b565b604051808215151515815260200191505060405180910390f35b3480156101cc57600080fd5b506101d5610693565b005b6101f9600480360381019080803561ffff169060200190929190505050610728565b005b34801561020757600080fd5b50610210610981565b005b34801561021e57600080fd5b50610227610a50565b6040518082815260200191505060405180910390f35b6102a5600480360381019080803561ffff169060200190929190803590602001908201803590602001908080601f0160208091040260200160405190810160405280939291908181526020018383808284378201915050505050509192919290505050610a5a565b005b3480156102b357600080fd5b506102d6600480360381019080803561ffff169060200190929190505050610c55565b005b3480156102e457600080fd5b506102ed610d84565b6040518082815260200191505060405180910390f35b34801561030f57600080fd5b50610332600480360381019080803561ffff169060200190929190505050610d8e565b604051808060200185815260200184815260200180602001838103835287818151815260200191508051906020019080838360005b83811015610382578082015181840152602081019050610367565b50505050905090810190601f1680156103af5780820380516001836020036101000a031916815260200191505b50838103825284818151815260200191508051906020019060200280838360005b838110156103eb5780820151818401526020810190506103d0565b50505050905001965050505050505060405180910390f35b34801561040f57600080fd5b50610487600480360381019080803573ffffffffffffffffffffffffffffffffffffffff16906020019092919080359060200190820180359060200190808060200260200160405190810160405280939291908181526020018383602002808284378201915050505050509192919290505050610f42565b604051808215151515815260200191505060405180910390f35b600080600080600760008761ffff1661ffff1681526020019081526020016000206004018054905092506104df600186610fc090919063ffffffff16565b83141561050c57600760008761ffff1661ffff168152602001908152602001600020600201549350610592565b6105456002610537610528600187610fc090919063ffffffff16565b86610fdc90919063ffffffff16565b61101490919063ffffffff16565b915061057882600760008961ffff1661ffff1681526020019081526020016000206003015461101490919063ffffffff16565b905061058f81868503610fdc90919063ffffffff16565b93505b50505092915050565b6060600680548060200260200160405190810160405280929190818152602001828054801561061157602002820191906000526020600020906000905b82829054906101000a900461ffff1661ffff16815260200190600201906020826001010492830192600103820291508084116105d85790505b5050505050905090565b600080600090505b600680549050811015610688578261ffff1660068281548110151561064457fe5b90600052602060002090601091828204019190066002029054906101000a900461ffff1661ffff16141561067b576000915061068d565b8080600101915050610623565b600191505b50919050565b6000809054906101000a900473ffffffffffffffffffffffffffffffffffffffff1673ffffffffffffffffffffffffffffffffffffffff163373ffffffffffffffffffffffffffffffffffffffff161415156106ee57600080fd5b6000809054906101000a900473ffffffffffffffffffffffffffffffffffffffff1673ffffffffffffffffffffffffffffffffffffffff16ff5b6000600760008361ffff1661ffff16815260200190815260200160002060020154341015151561075757600080fd5b600760008361ffff1661ffff16815260200190815260200160002060000160009054906101000a900460ff16151561078e57600080fd5b61083a33600760008561ffff1661ffff16815260200190815260200160002060040180548060200260200160405190810160405280929190818152602001828054801561083057602002820191906000526020600020905b8160009054906101000a900473ffffffffffffffffffffffffffffffffffffffff1673ffffffffffffffffffffffffffffffffffffffff16815260200190600101908083116107e6575b5050505050610f42565b15151561084657600080fd5b600760008361ffff1661ffff1681526020019081526020016000206004013390806001815401808255809150509060018203906000526020600020016000909192909190916101000a81548173ffffffffffffffffffffffffffffffffffffffff021916908373ffffffffffffffffffffffffffffffffffffffff160217905550506108d334600161102a565b905061090681600760008561ffff1661ffff16815260200190815260200160002060030154610fc090919063ffffffff16565b600760008461ffff1661ffff1681526020019081526020016000206003018190555061095b600454600760008561ffff1661ffff16815260200190815260200160002060020154610fc090919063ffffffff16565b600760008461ffff1661ffff168152602001908152602001600020600201819055505050565b6000809054906101000a900473ffffffffffffffffffffffffffffffffffffffff1673ffffffffffffffffffffffffffffffffffffffff163373ffffffffffffffffffffffffffffffffffffffff161415156109dc57600080fd5b6000809054906101000a900473ffffffffffffffffffffffffffffffffffffffff1673ffffffffffffffffffffffffffffffffffffffff166108fc6005549081150290604051600060405180830381858888f19350505050158015610a45573d6000803e3d6000fd5b506000600581905550565b6000600554905090565b60006001543410151515610a6d57600080fd5b6144a88361ffff16101515610a8157600080fd5b60008251111515610a9157600080fd5b610a9a8361061b565b1515610aa557600080fd5b610ab034605a61102a565b90506001600760008561ffff1661ffff16815260200190815260200160002060000160006101000a81548160ff02191690831515021790555081600760008561ffff1661ffff1681526020019081526020016000206001019080519060200190610b1b929190611415565b50600354600760008561ffff1661ffff1681526020019081526020016000206002018190555080600760008561ffff1661ffff16815260200190815260200160002060030181905550600760008461ffff1661ffff1681526020019081526020016000206004013390806001815401808255809150509060018203906000526020600020016000909192909190916101000a81548173ffffffffffffffffffffffffffffffffffffffff021916908373ffffffffffffffffffffffffffffffffffffffff16021790555050600683908060018154018082558091505090600182039060005260206000209060109182820401919006600202909192909190916101000a81548161ffff021916908361ffff16021790555050610c4a600254600154610fc090919063ffffffff16565b600181905550505050565b600080600080925060009150600760008561ffff1661ffff16815260200190815260200160002060000160009054906101000a900460ff161515610c9857600080fd5b600090505b600760008561ffff1661ffff16815260200190815260200160002060040180549050811015610d68573373ffffffffffffffffffffffffffffffffffffffff16600760008661ffff1661ffff16815260200190815260200160002060040182815481101515610d0857fe5b9060005260206000200160009054906101000a900473ffffffffffffffffffffffffffffffffffffffff1673ffffffffffffffffffffffffffffffffffffffff161415610d5b5760019250809150610d68565b8080600101915050610c9d565b821515610d7457600080fd5b610d7e848361108c565b50505050565b6000600154905090565b60606000806060600760008661ffff1661ffff168152602001908152602001600020600101600760008761ffff1661ffff16815260200190815260200160002060020154600760008861ffff1661ffff16815260200190815260200160002060030154600760008961ffff1661ffff168152602001908152602001600020600401838054600181600116156101000203166002900480601f016020809104026020016040519081016040528092919081815260200182805460018160011615610100020316600290048015610ea45780601f10610e7957610100808354040283529160200191610ea4565b820191906000526020600020905b815481529060010190602001808311610e8757829003601f168201915b5050505050935080805480602002602001604051908101604052809291908181526020018280548015610f2c57602002820191906000526020600020905b8160009054906101000a900473ffffffffffffffffffffffffffffffffffffffff1673ffffffffffffffffffffffffffffffffffffffff1681526020019060010190808311610ee2575b5050505050905093509350935093509193509193565b600080600090505b8251811015610fb4578373ffffffffffffffffffffffffffffffffffffffff168382815181101515610f7857fe5b9060200190602002015173ffffffffffffffffffffffffffffffffffffffff161415610fa75760019150610fb9565b8080600101915050610f4a565b600091505b5092915050565b60008183019050828110151515610fd357fe5b80905092915050565b600080831415610fef576000905061100e565b818302905081838281151561100057fe5b0414151561100a57fe5b8090505b92915050565b6000818381151561102157fe5b04905092915050565b60008061105360646110458587610fdc90919063ffffffff16565b61101490919063ffffffff16565b905061106a81600554610fc090919063ffffffff16565b60058190555061108381856113fc90919063ffffffff16565b91505092915050565b600080600061109b85856104a1565b9250600760008661ffff1661ffff168152602001908152602001600020600401848154811015156110c857fe5b9060005260206000200160009054906101000a900473ffffffffffffffffffffffffffffffffffffffff1673ffffffffffffffffffffffffffffffffffffffff166108fc849081150290604051600060405180830381858888f19350505050158015611138573d6000803e3d6000fd5b5061116c600454600760008861ffff1661ffff168152602001908152602001600020600201546113fc90919063ffffffff16565b600760008761ffff1661ffff168152602001908152602001600020600201819055506111bf83600760008861ffff1661ffff168152602001908152602001600020600301546113fc90919063ffffffff16565b600760008761ffff1661ffff168152602001908152602001600020600301819055506001600760008761ffff1661ffff16815260200190815260200160002060040180549050141561126957600760008661ffff1661ffff168152602001908152602001600020600401600081548110151561123757fe5b9060005260206000200160006101000a81549073ffffffffffffffffffffffffffffffffffffffff0219169055611396565b61129e6001600760008861ffff1661ffff168152602001908152602001600020600401805490506113fc90919063ffffffff16565b91508390505b8181101561139557600760008661ffff1661ffff1681526020019081526020016000206004016112de600183610fc090919063ffffffff16565b8154811015156112ea57fe5b9060005260206000200160009054906101000a900473ffffffffffffffffffffffffffffffffffffffff16600760008761ffff1661ffff1681526020019081526020016000206004018281548110151561134057fe5b9060005260206000200160006101000a81548173ffffffffffffffffffffffffffffffffffffffff021916908373ffffffffffffffffffffffffffffffffffffffff16021790555080806001019150506112a4565b5b6113cb6001600760008861ffff1661ffff168152602001908152602001600020600401805490506113fc90919063ffffffff16565b600760008761ffff1661ffff168152602001908152602001600020600401816113f49190611495565b505050505050565b600082821115151561140a57fe5b818303905092915050565b828054600181600116156101000203166002900490600052602060002090601f016020900481019282601f1061145657805160ff1916838001178555611484565b82800160010185558215611484579182015b82811115611483578251825591602001919060010190611468565b5b50905061149191906114c1565b5090565b8154818355818111156114bc578183600052602060002091820191016114bb91906114c1565b5b505050565b6114e391905b808211156114df5760008160009055506001016114c7565b5090565b905600a165627a7a72305820513f0f5c471394255cc1f094f208ccc85fc2391a6cd5d3f71f00ddb9ea022bfe0029",
  "source": "pragma solidity ^0.4.23;\n\n// import \"github.com/OpenZeppelin/zeppelin-solidity/contracts/math/SafeMath.sol\";\nimport \"openzeppelin-solidity/contracts/math/SafeMath.sol\";\n\ncontract PumpAndDump {\n\n  using SafeMath for uint256;\n\n  address owner;\n  uint newCoinFee = 0.005 ether;\n  uint newCoinFeeIncrease = 0.001 ether;\n  uint defaultCoinPrice = 0.001 ether;\n  uint coinPriceIncrease = 0.0001 ether;\n  uint devFees = 0;\n  uint16[] coinIds;\n\n  struct Coin {\n    bool exists;\n    string name;\n    uint price;\n    uint marketValue;\n    address[] investors;\n  }\n\n  mapping (uint16 => Coin) coins;\n\n  constructor() public {\n    owner = msg.sender;\n  }\n\n  function kill() external {\n    require(msg.sender == owner);\n    selfdestruct(owner);\n  }\n\n  function getNewCoinFee() public constant returns (uint) {\n    return newCoinFee;\n  }\n\n  function isCoinIdUnique(uint16 newId) public constant returns (bool) {\n    for (uint i = 0; i < coinIds.length; i++) {\n      if (coinIds[i] == newId) {\n        return false;\n      }\n    }\n    return true;\n  }\n\n\n  function createCoin(uint16 id, string name) public payable {\n    require(msg.value >= newCoinFee);\n    require(id < 17576); // 26*26*26\n    require(bytes(name).length > 0);\n    require(isCoinIdUnique(id));\n    uint amount = extractDevFee(msg.value, 90);\n    coins[id].exists = true;\n    coins[id].name = name;\n    coins[id].price = defaultCoinPrice;\n    coins[id].marketValue = amount;\n    coins[id].investors.push(msg.sender);\n    coinIds.push(id);\n    newCoinFee = newCoinFee.add(newCoinFeeIncrease);\n  }\n\n  function getCoinIds() public view returns (uint16[]) {\n    return coinIds;\n  }\n\n  function getCoinInfoFromId(uint16 coinId) public view returns (string, uint, uint, address[]) {\n    return (\n      coins[coinId].name,\n      coins[coinId].price,\n      coins[coinId].marketValue,\n      coins[coinId].investors\n    );\n  }\n\n  function getUserCoinMarketValue(uint16 coinId, uint userIndex) public view returns (uint) {\n      uint numInvestors = coins[coinId].investors.length;\n      // If this is the most recent investor\n      if (numInvestors == userIndex.add(1)) {\n        return coins[coinId].price;\n      } else {\n        uint numShares = (numInvestors.mul(numInvestors.add(1))).div(2);\n        uint atomWeight = coins[coinId].marketValue.div(numShares);\n        return (numInvestors - userIndex).mul(atomWeight);\n      }\n  }\n\n  function isSenderInvestor(address sender, address[] investors) public pure returns (bool) {\n    for (uint i = 0; i < investors.length; i++) {\n      if (investors[i] == sender) {\n        return true;\n      }\n    }\n    return false;\n  }\n\n  function buyCoin(uint16 coinId) public payable {\n    require(msg.value >= coins[coinId].price);\n    require(coins[coinId].exists);\n    require(!isSenderInvestor(msg.sender, coins[coinId].investors));\n    coins[coinId].investors.push(msg.sender);\n    uint amount = extractDevFee(msg.value, 1);\n    coins[coinId].marketValue = coins[coinId].marketValue.add(amount);\n    coins[coinId].price = coins[coinId].price.add(coinPriceIncrease);\n  }\n\n  function payAndRemoveInvestor(uint16 coinId, uint investorIndex) private {\n    uint value = getUserCoinMarketValue(coinId, investorIndex);\n    coins[coinId].investors[investorIndex].transfer(value);\n    coins[coinId].price = coins[coinId].price.sub(coinPriceIncrease);\n    coins[coinId].marketValue = coins[coinId].marketValue.sub(value);\n    if (coins[coinId].investors.length == 1) {\n      delete coins[coinId].investors[0];\n    } else {\n      uint secondLastIndex = coins[coinId].investors.length.sub(1);\n      for (uint j = investorIndex; j < secondLastIndex; j++) {\n        coins[coinId].investors[j] = coins[coinId].investors[j.add(1)];\n      }\n    }\n    coins[coinId].investors.length = coins[coinId].investors.length.sub(1);\n  }\n\n  function sellCoin(uint16 coinId) public {\n    bool senderIsInvestor = false;\n    uint investorIndex = 0;\n    require(coins[coinId].exists);\n    for (uint i = 0; i < coins[coinId].investors.length; i++) {\n      if (coins[coinId].investors[i] == msg.sender) {\n        senderIsInvestor = true;\n        investorIndex = i;\n        break;\n      }\n    }\n    require(senderIsInvestor);\n    payAndRemoveInvestor(coinId, investorIndex);\n  }\n\n  function extractDevFee(uint amount, uint percent) private returns (uint) {\n    uint fee = amount.mul(percent).div(100);\n    devFees = devFees.add(fee);\n    return amount.sub(fee);\n  }\n\n  function getDevFees() public view returns (uint) {\n    return devFees;\n  }\n\n  function collectDevFees() public {\n    require(msg.sender == owner);\n    owner.transfer(devFees);\n    devFees = 0;\n  }\n\n  function() public payable {}\n\n}",
  "sourcePath": "D:\\dapps\\pump-and-dump\\contracts\\PumpAndDump.sol",
  "compiler": {
    "name": "solc",
    "version": "0.4.23+commit.124ca40d.Emscripten.clang"
  },
  "schemaVersion": "2.0.0",
  "updatedAt": "2018-05-26T20:46:38.936Z"
}