{
  "contractName": "PumpAndDump",
  "abi": [
    {
      "inputs": [],
      "payable": false,
      "stateMutability": "nonpayable",
      "type": "constructor"
    },
    {
      "payable": true,
      "stateMutability": "payable",
      "type": "fallback"
    },
    {
      "constant": false,
      "inputs": [],
      "name": "kill",
      "outputs": [],
      "payable": false,
      "stateMutability": "nonpayable",
      "type": "function"
    },
    {
      "constant": true,
      "inputs": [],
      "name": "getNewCoinFee",
      "outputs": [
        {
          "name": "",
          "type": "uint256"
        }
      ],
      "payable": false,
      "stateMutability": "view",
      "type": "function"
    },
    {
      "constant": true,
      "inputs": [
        {
          "name": "newId",
          "type": "uint16"
        }
      ],
      "name": "isCoinIdUnique",
      "outputs": [
        {
          "name": "",
          "type": "bool"
        }
      ],
      "payable": false,
      "stateMutability": "view",
      "type": "function"
    },
    {
      "constant": false,
      "inputs": [
        {
          "name": "id",
          "type": "uint16"
        },
        {
          "name": "name",
          "type": "string"
        }
      ],
      "name": "createCoin",
      "outputs": [],
      "payable": true,
      "stateMutability": "payable",
      "type": "function"
    },
    {
      "constant": true,
      "inputs": [],
      "name": "getCoinIds",
      "outputs": [
        {
          "name": "",
          "type": "uint16[]"
        }
      ],
      "payable": false,
      "stateMutability": "view",
      "type": "function"
    },
    {
      "constant": true,
      "inputs": [
        {
          "name": "coinId",
          "type": "uint16"
        }
      ],
      "name": "getCoinInfoFromId",
      "outputs": [
        {
          "name": "",
          "type": "string"
        },
        {
          "name": "",
          "type": "uint256"
        },
        {
          "name": "",
          "type": "uint256"
        },
        {
          "name": "",
          "type": "address[]"
        }
      ],
      "payable": false,
      "stateMutability": "view",
      "type": "function"
    },
    {
      "constant": true,
      "inputs": [
        {
          "name": "coinId",
          "type": "uint16"
        },
        {
          "name": "userIndex",
          "type": "uint256"
        }
      ],
      "name": "getUserCoinMarketValue",
      "outputs": [
        {
          "name": "",
          "type": "uint256"
        }
      ],
      "payable": false,
      "stateMutability": "view",
      "type": "function"
    },
    {
      "constant": true,
      "inputs": [
        {
          "name": "sender",
          "type": "address"
        },
        {
          "name": "investors",
          "type": "address[]"
        }
      ],
      "name": "isSenderInvestor",
      "outputs": [
        {
          "name": "",
          "type": "bool"
        }
      ],
      "payable": false,
      "stateMutability": "pure",
      "type": "function"
    },
    {
      "constant": false,
      "inputs": [
        {
          "name": "coinId",
          "type": "uint16"
        }
      ],
      "name": "buyCoin",
      "outputs": [],
      "payable": true,
      "stateMutability": "payable",
      "type": "function"
    },
    {
      "constant": false,
      "inputs": [
        {
          "name": "coinId",
          "type": "uint16"
        }
      ],
      "name": "sellCoin",
      "outputs": [],
      "payable": false,
      "stateMutability": "nonpayable",
      "type": "function"
    },
    {
      "constant": true,
      "inputs": [],
      "name": "getDevFees",
      "outputs": [
        {
          "name": "",
          "type": "uint256"
        }
      ],
      "payable": false,
      "stateMutability": "view",
      "type": "function"
    },
    {
      "constant": false,
      "inputs": [],
      "name": "collectDevFees",
      "outputs": [],
      "payable": false,
      "stateMutability": "nonpayable",
      "type": "function"
    }
  ],
  "bytecode": "0x60806040526611c37937e0800060015566038d7ea4c6800060025566038d7ea4c68000600355655af3107a4000600455600060055534801561004057600080fd5b50336000806101000a81548173ffffffffffffffffffffffffffffffffffffffff021916908373ffffffffffffffffffffffffffffffffffffffff16021790555061131c806100906000396000f3006080604052600436106100ba576000357c0100000000000000000000000000000000000000000000000000000000900463ffffffff1680630c9a6c24146100bc578063168b62311461010b578063270d13fb1461017757806341c0e1b5146101c05780634c2db6d8146101d75780635054e8bf146101fb5780639017006e14610212578063ad9657f41461023d578063d4d2af8d146102a7578063e079e334146102d8578063e9922f1214610303578063f00d732614610403575b005b3480156100c857600080fd5b506100f5600480360381019080803561ffff169060200190929190803590602001909291905050506104a1565b6040518082815260200191505060405180910390f35b34801561011757600080fd5b50610120610548565b6040518080602001828103825283818151815260200191508051906020019060200280838360005b83811015610163578082015181840152602081019050610148565b505050509050019250505060405180910390f35b34801561018357600080fd5b506101a6600480360381019080803561ffff1690602001909291905050506105c8565b604051808215151515815260200191505060405180910390f35b3480156101cc57600080fd5b506101d5610640565b005b6101f9600480360381019080803561ffff1690602001909291905050506106d5565b005b34801561020757600080fd5b506102106108e0565b005b34801561021e57600080fd5b506102276109af565b6040518082815260200191505060405180910390f35b6102a5600480360381019080803561ffff169060200190929190803590602001908201803590602001908080601f01602080910402602001604051908101604052809392919081815260200183838082843782019150505050505091929192905050506109b9565b005b3480156102b357600080fd5b506102d6600480360381019080803561ffff169060200190929190505050610ba9565b005b3480156102e457600080fd5b506102ed610cd8565b6040518082815260200191505060405180910390f35b34801561030f57600080fd5b50610332600480360381019080803561ffff169060200190929190505050610ce2565b604051808060200185815260200184815260200180602001838103835287818151815260200191508051906020019080838360005b83811015610382578082015181840152602081019050610367565b50505050905090810190601f1680156103af5780820380516001836020036101000a031916815260200191505b50838103825284818151815260200191508051906020019060200280838360005b838110156103eb5780820151818401526020810190506103d0565b50505050905001965050505050505060405180910390f35b34801561040f57600080fd5b50610487600480360381019080803573ffffffffffffffffffffffffffffffffffffffff16906020019092919080359060200190820180359060200190808060200260200160405190810160405280939291908181526020018383602002808284378201915050505050509192919290505050610e96565b604051808215151515815260200191505060405180910390f35b6000806000600760008661ffff1661ffff168152602001908152602001600020600401805490509150600184018214156104fb57600760008661ffff1661ffff168152602001908152602001600020600201549250610540565b600260018301830281151561050c57fe5b04905080600760008761ffff1661ffff168152602001908152602001600020600301548584030281151561053c57fe5b0492505b505092915050565b606060068054806020026020016040519081016040528092919081815260200182805480156105be57602002820191906000526020600020906000905b82829054906101000a900461ffff1661ffff16815260200190600201906020826001010492830192600103820291508084116105855790505b5050505050905090565b600080600090505b600680549050811015610635578261ffff166006828154811015156105f157fe5b90600052602060002090601091828204019190066002029054906101000a900461ffff1661ffff161415610628576000915061063a565b80806001019150506105d0565b600191505b50919050565b6000809054906101000a900473ffffffffffffffffffffffffffffffffffffffff1673ffffffffffffffffffffffffffffffffffffffff163373ffffffffffffffffffffffffffffffffffffffff1614151561069b57600080fd5b6000809054906101000a900473ffffffffffffffffffffffffffffffffffffffff1673ffffffffffffffffffffffffffffffffffffffff16ff5b6000600760008361ffff1661ffff16815260200190815260200160002060020154341015151561070457600080fd5b600760008361ffff1661ffff16815260200190815260200160002060000160009054906101000a900460ff16151561073b57600080fd5b6107e733600760008561ffff1661ffff1681526020019081526020016000206004018054806020026020016040519081016040528092919081815260200182805480156107dd57602002820191906000526020600020905b8160009054906101000a900473ffffffffffffffffffffffffffffffffffffffff1673ffffffffffffffffffffffffffffffffffffffff1681526020019060010190808311610793575b5050505050610e96565b1515156107f357600080fd5b600760008361ffff1661ffff1681526020019081526020016000206004013390806001815401808255809150509060018203906000526020600020016000909192909190916101000a81548173ffffffffffffffffffffffffffffffffffffffff021916908373ffffffffffffffffffffffffffffffffffffffff16021790555050610880346001610f14565b905080600760008461ffff1661ffff16815260200190815260200160002060030160008282540192505081905550600454600760008461ffff1661ffff168152602001908152602001600020600201600082825401925050819055505050565b6000809054906101000a900473ffffffffffffffffffffffffffffffffffffffff1673ffffffffffffffffffffffffffffffffffffffff163373ffffffffffffffffffffffffffffffffffffffff1614151561093b57600080fd5b6000809054906101000a900473ffffffffffffffffffffffffffffffffffffffff1673ffffffffffffffffffffffffffffffffffffffff166108fc6005549081150290604051600060405180830381858888f193505050501580156109a4573d6000803e3d6000fd5b506000600581905550565b6000600554905090565b600060015434101515156109cc57600080fd5b6144a88361ffff161015156109e057600080fd5b600082511115156109f057600080fd5b6109f9836105c8565b1515610a0457600080fd5b610a0f34605a610f14565b90506001600760008561ffff1661ffff16815260200190815260200160002060000160006101000a81548160ff02191690831515021790555081600760008561ffff1661ffff1681526020019081526020016000206001019080519060200190610a7a92919061121f565b50600354600760008561ffff1661ffff1681526020019081526020016000206002018190555080600760008561ffff1661ffff16815260200190815260200160002060030181905550600760008461ffff1661ffff1681526020019081526020016000206004013390806001815401808255809150509060018203906000526020600020016000909192909190916101000a81548173ffffffffffffffffffffffffffffffffffffffff021916908373ffffffffffffffffffffffffffffffffffffffff16021790555050600683908060018154018082558091505090600182039060005260206000209060109182820401919006600202909192909190916101000a81548161ffff021916908361ffff16021790555050600254600160008282540192505081905550505050565b600080600080925060009150600760008561ffff1661ffff16815260200190815260200160002060000160009054906101000a900460ff161515610bec57600080fd5b600090505b600760008561ffff1661ffff16815260200190815260200160002060040180549050811015610cbc573373ffffffffffffffffffffffffffffffffffffffff16600760008661ffff1661ffff16815260200190815260200160002060040182815481101515610c5c57fe5b9060005260206000200160009054906101000a900473ffffffffffffffffffffffffffffffffffffffff1673ffffffffffffffffffffffffffffffffffffffff161415610caf5760019250809150610cbc565b8080600101915050610bf1565b821515610cc857600080fd5b610cd28483610f47565b50505050565b6000600154905090565b60606000806060600760008661ffff1661ffff168152602001908152602001600020600101600760008761ffff1661ffff16815260200190815260200160002060020154600760008861ffff1661ffff16815260200190815260200160002060030154600760008961ffff1661ffff168152602001908152602001600020600401838054600181600116156101000203166002900480601f016020809104026020016040519081016040528092919081815260200182805460018160011615610100020316600290048015610df85780601f10610dcd57610100808354040283529160200191610df8565b820191906000526020600020905b815481529060010190602001808311610ddb57829003601f168201915b5050505050935080805480602002602001604051908101604052809291908181526020018280548015610e8057602002820191906000526020600020905b8160009054906101000a900473ffffffffffffffffffffffffffffffffffffffff1673ffffffffffffffffffffffffffffffffffffffff1681526020019060010190808311610e36575b5050505050905093509350935093509193509193565b600080600090505b8251811015610f08578373ffffffffffffffffffffffffffffffffffffffff168382815181101515610ecc57fe5b9060200190602002015173ffffffffffffffffffffffffffffffffffffffff161415610efb5760019150610f0d565b8080600101915050610e9e565b600091505b5092915050565b6000806064838502811515610f2557fe5b0490508060056000828254019250508190555080840393508391505092915050565b6000806000610f5685856104a1565b9250600760008661ffff1661ffff16815260200190815260200160002060040184815481101515610f8357fe5b9060005260206000200160009054906101000a900473ffffffffffffffffffffffffffffffffffffffff1673ffffffffffffffffffffffffffffffffffffffff166108fc849081150290604051600060405180830381858888f19350505050158015610ff3573d6000803e3d6000fd5b50600454600760008761ffff1661ffff1681526020019081526020016000206002016000828254039250508190555082600760008761ffff1661ffff168152602001908152602001600020600301600082825403925050819055506001600760008761ffff1661ffff1681526020019081526020016000206004018054905014156110d657600760008661ffff1661ffff16815260200190815260200160002060040160008154811015156110a457fe5b9060005260206000200160006101000a81549073ffffffffffffffffffffffffffffffffffffffff02191690556111e3565b6001600760008761ffff1661ffff168152602001908152602001600020600401805490500391508390505b818110156111e257600760008661ffff1661ffff1681526020019081526020016000206004016001820381548110151561113757fe5b9060005260206000200160009054906101000a900473ffffffffffffffffffffffffffffffffffffffff16600760008761ffff1661ffff1681526020019081526020016000206004018281548110151561118d57fe5b9060005260206000200160006101000a81548173ffffffffffffffffffffffffffffffffffffffff021916908373ffffffffffffffffffffffffffffffffffffffff1602179055508080600101915050611101565b5b6001600760008761ffff1661ffff16815260200190815260200160002060040181818054905003915081611217919061129f565b505050505050565b828054600181600116156101000203166002900490600052602060002090601f016020900481019282601f1061126057805160ff191683800117855561128e565b8280016001018555821561128e579182015b8281111561128d578251825591602001919060010190611272565b5b50905061129b91906112cb565b5090565b8154818355818111156112c6578183600052602060002091820191016112c591906112cb565b5b505050565b6112ed91905b808211156112e95760008160009055506001016112d1565b5090565b905600a165627a7a723058206f27922351a420cfdddc8289e47bc4a4f7426b5652aabe97b7fe08f4f2453b030029",
  "source": "pragma solidity ^0.4.23;\n\n// import \"github.com/OpenZeppelin/zeppelin-solidity/contracts/math/SafeMath.sol\";\n// import \"openzeppelin-solidity/contracts/math/SafeMath.sol\";\n\ncontract PumpAndDump {\n\n  address owner;\n  uint newCoinFee = 0.005 ether;\n  uint newCoinFeeIncrease = 0.001 ether;\n  uint defaultCoinPrice = 0.001 ether;\n  uint coinPriceIncrease = 0.0001 ether;\n  uint devFees = 0;\n  uint16[] coinIds;\n\n  struct Coin {\n    bool exists;\n    string name;\n    uint price;\n    uint marketValue;\n    address[] investors;\n  }\n\n  mapping (uint16 => Coin) coins;\n\n  constructor() public {\n    owner = msg.sender;\n  }\n\n  function kill() external {\n    require(msg.sender == owner);\n    selfdestruct(owner);\n  }\n\n  function getNewCoinFee() public constant returns (uint) {\n    return newCoinFee;\n  }\n\n  function isCoinIdUnique(uint16 newId) public constant returns (bool) {\n    for (uint i = 0; i < coinIds.length; i++) {\n      if (coinIds[i] == newId) {\n        return false;\n      }\n    }\n    return true;\n  }\n\n\n  function createCoin(uint16 id, string name) public payable {\n    require(msg.value >= newCoinFee);\n    require(id < 17576); // 26*26*26\n    require(bytes(name).length > 0);\n    require(isCoinIdUnique(id));\n    uint amount = extractDevFee(msg.value, 90);\n\n    coins[id].exists = true;\n    coins[id].name = name;\n    coins[id].price = defaultCoinPrice;\n    coins[id].marketValue = amount;\n    coins[id].investors.push(msg.sender);\n    coinIds.push(id);\n    newCoinFee += newCoinFeeIncrease;\n  }\n\n  function getCoinIds() public view returns (uint16[]) {\n    return coinIds;\n  }\n\n  function getCoinInfoFromId(uint16 coinId) public view returns (string, uint, uint, address[]) {\n    return (\n      coins[coinId].name,\n      coins[coinId].price,\n      coins[coinId].marketValue,\n      coins[coinId].investors\n    );\n  }\n\n  function getUserCoinMarketValue(uint16 coinId, uint userIndex) public view returns (uint) {\n      uint numInvestors = coins[coinId].investors.length;\n      // If this is the most recent investor\n      if (numInvestors == userIndex + 1) {\n        return coins[coinId].price;\n      } else {\n        uint numShares = (numInvestors * (numInvestors + 1)) / 2;\n        return ((numInvestors - userIndex) * coins[coinId].marketValue) / numShares;\n      }\n  }\n\n  function isSenderInvestor(address sender, address[] investors) public pure returns (bool) {\n    for (uint i = 0; i < investors.length; i++) {\n      if (investors[i] == sender) {\n        return true;\n      }\n    }\n    return false;\n  }\n\n  function buyCoin(uint16 coinId) public payable {\n    require(msg.value >= coins[coinId].price);\n    require(coins[coinId].exists);\n    require(!isSenderInvestor(msg.sender, coins[coinId].investors));\n    coins[coinId].investors.push(msg.sender);\n    uint amount = extractDevFee(msg.value, 1);\n    \n    coins[coinId].marketValue += amount;\n    coins[coinId].price += coinPriceIncrease;\n  }\n\n  function payAndRemoveInvestor(uint16 coinId, uint investorIndex) private {\n    uint value = getUserCoinMarketValue(coinId, investorIndex);\n    coins[coinId].investors[investorIndex].transfer(value);\n    coins[coinId].price -= coinPriceIncrease;\n    coins[coinId].marketValue -= value;\n    if (coins[coinId].investors.length == 1) {\n      delete coins[coinId].investors[0];\n    } else {\n      uint secondLastIndex = coins[coinId].investors.length - 1;\n      for (uint j = investorIndex; j < secondLastIndex; j++) {\n        coins[coinId].investors[j] = coins[coinId].investors[j - 1];\n      }\n    }\n    coins[coinId].investors.length -= 1;\n  }\n\n  function sellCoin(uint16 coinId) public {\n    bool senderIsInvestor = false;\n    uint investorIndex = 0;\n    require(coins[coinId].exists);\n    for (uint i = 0; i < coins[coinId].investors.length; i++) {\n      if (coins[coinId].investors[i] == msg.sender) {\n        senderIsInvestor = true;\n        investorIndex = i;\n        break;\n      }\n    }\n    require(senderIsInvestor);\n    payAndRemoveInvestor(coinId, investorIndex);\n  }\n\n  function extractDevFee(uint amount, uint percent) private returns (uint) {\n    uint fee = (amount * percent) / 100;\n    devFees += fee;\n    amount -= fee;\n    return amount;\n  }\n\n  function getDevFees() public view returns (uint) {\n    return devFees;\n  }\n\n  function collectDevFees() public {\n    require(msg.sender == owner);\n    owner.transfer(devFees);\n    devFees = 0;\n  }\n\n  function() public payable {}\n\n}",
  "sourcePath": "D:\\dapps\\pump-and-dump\\contracts\\PumpAndDump.sol",
  "compiler": {
    "name": "solc",
    "version": "0.4.23+commit.124ca40d.Emscripten.clang"
  },
  "schemaVersion": "2.0.0",
  "updatedAt": "2018-05-27T03:09:34.530Z"
}