{
  "contractName": "PumpAndDump",
  "abi": [
    {
      "inputs": [],
      "payable": false,
      "stateMutability": "nonpayable",
      "type": "constructor"
    },
    {
      "constant": true,
      "inputs": [],
      "name": "getNewCoinFee",
      "outputs": [
        {
          "name": "",
          "type": "uint256"
        }
      ],
      "payable": false,
      "stateMutability": "view",
      "type": "function"
    },
    {
      "constant": true,
      "inputs": [
        {
          "name": "newId",
          "type": "uint16"
        }
      ],
      "name": "isCoinIdUnique",
      "outputs": [
        {
          "name": "",
          "type": "bool"
        }
      ],
      "payable": false,
      "stateMutability": "view",
      "type": "function"
    },
    {
      "constant": false,
      "inputs": [
        {
          "name": "id",
          "type": "uint16"
        },
        {
          "name": "name",
          "type": "string"
        }
      ],
      "name": "createCoin",
      "outputs": [],
      "payable": true,
      "stateMutability": "payable",
      "type": "function"
    },
    {
      "constant": true,
      "inputs": [],
      "name": "getCoinIds",
      "outputs": [
        {
          "name": "",
          "type": "uint16[]"
        }
      ],
      "payable": false,
      "stateMutability": "view",
      "type": "function"
    },
    {
      "constant": true,
      "inputs": [
        {
          "name": "coinId",
          "type": "uint16"
        }
      ],
      "name": "getCoinInfoFromId",
      "outputs": [
        {
          "name": "",
          "type": "string"
        },
        {
          "name": "",
          "type": "uint256"
        },
        {
          "name": "",
          "type": "uint256"
        },
        {
          "name": "",
          "type": "address[]"
        }
      ],
      "payable": false,
      "stateMutability": "view",
      "type": "function"
    },
    {
      "constant": true,
      "inputs": [
        {
          "name": "coinId",
          "type": "uint16"
        },
        {
          "name": "userIndex",
          "type": "uint256"
        }
      ],
      "name": "getUserCoinMarketValue",
      "outputs": [
        {
          "name": "",
          "type": "uint256"
        }
      ],
      "payable": false,
      "stateMutability": "view",
      "type": "function"
    },
    {
      "constant": false,
      "inputs": [
        {
          "name": "coinId",
          "type": "uint16"
        }
      ],
      "name": "buyCoin",
      "outputs": [],
      "payable": true,
      "stateMutability": "payable",
      "type": "function"
    },
    {
      "constant": false,
      "inputs": [
        {
          "name": "coinId",
          "type": "uint16"
        },
        {
          "name": "investorIndex",
          "type": "uint256"
        }
      ],
      "name": "removeInvestor",
      "outputs": [],
      "payable": false,
      "stateMutability": "nonpayable",
      "type": "function"
    },
    {
      "constant": false,
      "inputs": [
        {
          "name": "coinId",
          "type": "uint16"
        }
      ],
      "name": "sellCoin",
      "outputs": [],
      "payable": false,
      "stateMutability": "nonpayable",
      "type": "function"
    },
    {
      "constant": false,
      "inputs": [
        {
          "name": "amount",
          "type": "uint256"
        }
      ],
      "name": "retrieveFunds",
      "outputs": [],
      "payable": false,
      "stateMutability": "nonpayable",
      "type": "function"
    }
  ],
  "bytecode": "0x6080604052662386f26fc10000600155662386f26fc1000060025566038d7ea4c68000600355655af3107a400060045534801561003b57600080fd5b50336000806101000a81548173ffffffffffffffffffffffffffffffffffffffff021916908373ffffffffffffffffffffffffffffffffffffffff16021790555061110d8061008b6000396000f3006080604052600436106100a4576000357c0100000000000000000000000000000000000000000000000000000000900463ffffffff1680630c9a6c24146100a9578063168b6231146100f8578063270d13fb146101645780634c2db6d8146101ad578063aa0f46f6146101d1578063ad9657f41461020c578063d4d2af8d14610276578063e079e334146102a7578063e9922f12146102d2578063fc41491e146103d2575b600080fd5b3480156100b557600080fd5b506100e2600480360381019080803561ffff169060200190929190803590602001909291905050506103ff565b6040518082815260200191505060405180910390f35b34801561010457600080fd5b5061010d610479565b6040518080602001828103825283818151815260200191508051906020019060200280838360005b83811015610150578082015181840152602081019050610135565b505050509050019250505060405180910390f35b34801561017057600080fd5b50610193600480360381019080803561ffff1690602001909291905050506104f9565b604051808215151515815260200191505060405180910390f35b6101cf600480360381019080803561ffff169060200190929190505050610571565b005b3480156101dd57600080fd5b5061020a600480360381019080803561ffff1690602001909291908035906020019092919050505061067d565b005b610274600480360381019080803561ffff169060200190929190803590602001908201803590602001908080601f016020809104026020016040519081016040528093929190818152602001838380828437820191505050505050919291929050505061094c565b005b34801561028257600080fd5b506102a5600480360381019080803561ffff169060200190929190505050610b50565b005b3480156102b357600080fd5b506102bc610c43565b6040518082815260200191505060405180910390f35b3480156102de57600080fd5b50610301600480360381019080803561ffff169060200190929190505050610c4d565b604051808060200185815260200184815260200180602001838103835287818151815260200191508051906020019080838360005b83811015610351578082015181840152602081019050610336565b50505050905090810190601f16801561037e5780820380516001836020036101000a031916815260200191505b50838103825284818151815260200191508051906020019060200280838360005b838110156103ba57808201518184015260208101905061039f565b50505050905001965050505050505060405180910390f35b3480156103de57600080fd5b506103fd60048036038101908080359060200190929190505050610e01565b005b600080600080600260018601860281151561041657fe5b04925082600660008861ffff1661ffff1681526020019081526020016000206002015481151561044257fe5b049150600660008761ffff1661ffff1681526020019081526020016000206003018054905090508185820302935050505092915050565b606060058054806020026020016040519081016040528092919081815260200182805480156104ef57602002820191906000526020600020906000905b82829054906101000a900461ffff1661ffff16815260200190600201906020826001010492830192600103820291508084116104b65790505b5050505050905090565b600080600090505b600580549050811015610566578261ffff1660058281548110151561052257fe5b90600052602060002090601091828204019190066002029054906101000a900461ffff1661ffff161415610559576000915061056b565b8080600101915050610501565b600191505b50919050565b600660008261ffff1661ffff16815260200190815260200160002060010154341015151561059e57600080fd5b600660008261ffff1661ffff1681526020019081526020016000206003013390806001815401808255809150509060018203906000526020600020016000909192909190916101000a81548173ffffffffffffffffffffffffffffffffffffffff021916908373ffffffffffffffffffffffffffffffffffffffff1602179055505034600660008361ffff1661ffff16815260200190815260200160002060020160008282540192505081905550600454600660008361ffff1661ffff1681526020019081526020016000206001016000828254019250508190555050565b60008061068a84846103ff565b9150600660008561ffff1661ffff168152602001908152602001600020600301838154811015156106b757fe5b9060005260206000200160009054906101000a900473ffffffffffffffffffffffffffffffffffffffff1673ffffffffffffffffffffffffffffffffffffffff166108fc839081150290604051600060405180830381858888f19350505050158015610727573d6000803e3d6000fd5b50600454600660008661ffff1661ffff1681526020019081526020016000206001016000828254039250508190555081600660008661ffff1661ffff168152602001908152602001600020600201600082825403925050819055506001600660008661ffff1661ffff16815260200190815260200160002060030180549050141561080a57600660008561ffff1661ffff16815260200190815260200160002060030160008154811015156107d857fe5b9060005260206000200160006101000a81549073ffffffffffffffffffffffffffffffffffffffff0219169055610914565b8290505b6001600660008661ffff1661ffff168152602001908152602001600020600301805490500381101561091357600660008561ffff1661ffff1681526020019081526020016000206003016001820181548110151561086857fe5b9060005260206000200160009054906101000a900473ffffffffffffffffffffffffffffffffffffffff16600660008661ffff1661ffff168152602001908152602001600020600301828154811015156108be57fe5b9060005260206000200160006101000a81548173ffffffffffffffffffffffffffffffffffffffff021916908373ffffffffffffffffffffffffffffffffffffffff160217905550808060010191505061080e565b5b600660008561ffff1661ffff1681526020019081526020016000206003018054809190600190036109459190610f1a565b5050505050565b610954610f46565b600154341015151561096557600080fd5b6144a88361ffff1610151561097957600080fd5b6000825111151561098957600080fd5b610992836104f9565b151561099d57600080fd5b608060405190810160405280838152602001600081526020016000815260200160006040519080825280602002602001820160405280156109ed5781602001602082028038833980820191505090505b5081525090503481604001818152505080600660008561ffff1661ffff1681526020019081526020016000206000820151816000019080519060200190610a35929190610f6f565b5060208201518160010155604082015181600201556060820151816003019080519060200190610a66929190610fef565b50905050600660008461ffff1661ffff1681526020019081526020016000206003013390806001815401808255809150509060018203906000526020600020016000909192909190916101000a81548173ffffffffffffffffffffffffffffffffffffffff021916908373ffffffffffffffffffffffffffffffffffffffff16021790555050600583908060018154018082558091505090600182039060005260206000209060109182820401919006600202909192909190916101000a81548161ffff021916908361ffff16021790555050600254600160008282540192505081905550505050565b600080600080925060009150600090505b600660008561ffff1661ffff16815260200190815260200160002060030180549050811015610c2c573373ffffffffffffffffffffffffffffffffffffffff16600660008661ffff1661ffff16815260200190815260200160002060030182815481101515610bcc57fe5b9060005260206000200160009054906101000a900473ffffffffffffffffffffffffffffffffffffffff1673ffffffffffffffffffffffffffffffffffffffff161415610c1f5760019250809150610c2c565b8080600101915050610b61565b8215610c3d57610c3c848361067d565b5b50505050565b6000600154905090565b60606000806060600660008661ffff1661ffff168152602001908152602001600020600001600660008761ffff1661ffff16815260200190815260200160002060010154600660008861ffff1661ffff16815260200190815260200160002060020154600660008961ffff1661ffff168152602001908152602001600020600301838054600181600116156101000203166002900480601f016020809104026020016040519081016040528092919081815260200182805460018160011615610100020316600290048015610d635780601f10610d3857610100808354040283529160200191610d63565b820191906000526020600020905b815481529060010190602001808311610d4657829003601f168201915b5050505050935080805480602002602001604051908101604052809291908181526020018280548015610deb57602002820191906000526020600020905b8160009054906101000a900473ffffffffffffffffffffffffffffffffffffffff1673ffffffffffffffffffffffffffffffffffffffff1681526020019060010190808311610da1575b5050505050905093509350935093509193509193565b6000809054906101000a900473ffffffffffffffffffffffffffffffffffffffff1673ffffffffffffffffffffffffffffffffffffffff163373ffffffffffffffffffffffffffffffffffffffff16141515610e5957fe5b6000809054906101000a900473ffffffffffffffffffffffffffffffffffffffff1673ffffffffffffffffffffffffffffffffffffffff163373ffffffffffffffffffffffffffffffffffffffff161415610f17576000809054906101000a900473ffffffffffffffffffffffffffffffffffffffff1673ffffffffffffffffffffffffffffffffffffffff166108fc829081150290604051600060405180830381858888f19350505050158015610f15573d6000803e3d6000fd5b505b50565b815481835581811115610f4157818360005260206000209182019101610f409190611079565b5b505050565b608060405190810160405280606081526020016000815260200160008152602001606081525090565b828054600181600116156101000203166002900490600052602060002090601f016020900481019282601f10610fb057805160ff1916838001178555610fde565b82800160010185558215610fde579182015b82811115610fdd578251825591602001919060010190610fc2565b5b509050610feb9190611079565b5090565b828054828255906000526020600020908101928215611068579160200282015b828111156110675782518260006101000a81548173ffffffffffffffffffffffffffffffffffffffff021916908373ffffffffffffffffffffffffffffffffffffffff1602179055509160200191906001019061100f565b5b509050611075919061109e565b5090565b61109b91905b8082111561109757600081600090555060010161107f565b5090565b90565b6110de91905b808211156110da57600081816101000a81549073ffffffffffffffffffffffffffffffffffffffff0219169055506001016110a4565b5090565b905600a165627a7a72305820a27bc299ccb03be007daf58a365e96a88c5484be62a40c492559f4687dbbbb060029",
  "source": "pragma solidity ^0.4.23;\n\ncontract PumpAndDump {\n\n  address owner;\n  uint newCoinFee = 0.01 ether;\n  uint newCoinFeeIncrease = 0.01 ether;\n  uint defaultCoinPrice = 0.001 ether;\n  uint coinPriceIncrease = 0.0001 ether;\n  uint16[] coinIds; \n\n  struct Coin {\n    string name;\n    uint price;\n    uint marketValue;\n    address[] investors;\n  }\n\n  mapping (uint16 => Coin) coins;\n\n  constructor() public {\n    owner = msg.sender;\n  }\n\n  function getNewCoinFee() public constant returns (uint) {\n    return newCoinFee;\n  }\n\n  function isCoinIdUnique(uint16 newId) public constant returns (bool) {\n    for (uint i = 0; i < coinIds.length; i++) {\n      if (coinIds[i] == newId) {\n        return false;\n      }\n    }\n    return true;\n  }\n\n\n  function createCoin(uint16 id, string name) public payable {\n    require(msg.value >= newCoinFee);\n    require(id < 17576); // 26*26*26\n    require(bytes(name).length > 0);\n    require(isCoinIdUnique(id));\n    Coin memory newCoin = Coin(name, 0, 0, new address[](0));\n    newCoin.marketValue = msg.value;\n    coins[id] = newCoin;\n    coins[id].investors.push(msg.sender);\n    coinIds.push(id);\n    newCoinFee += newCoinFeeIncrease;\n  }\n\n  function getCoinIds() public constant returns (uint16[]) {\n    return coinIds;\n  }\n\n  function getCoinInfoFromId(uint16 coinId) public constant returns (string, uint, uint, address[]) {\n    return (\n      coins[coinId].name,\n      coins[coinId].price,\n      coins[coinId].marketValue,\n      coins[coinId].investors\n    );\n  }\n\n  function getUserCoinMarketValue(uint16 coinId, uint userIndex) public constant returns (uint) {\n      uint marketWeights = (userIndex * (userIndex + 1)) / 2;\n      uint atomWeight = coins[coinId].marketValue / marketWeights;\n      uint numInvestors = coins[coinId].investors.length;\n      return (numInvestors - userIndex) * atomWeight;\n  }\n\n  function buyCoin(uint16 coinId) public payable {\n    require(msg.value >= coins[coinId].price);\n    coins[coinId].investors.push(msg.sender);\n    coins[coinId].marketValue += msg.value;\n    coins[coinId].price += coinPriceIncrease;\n  }\n\n  function removeInvestor(uint16 coinId, uint investorIndex) public {\n    uint value = getUserCoinMarketValue(coinId, investorIndex);\n    coins[coinId].investors[investorIndex].transfer(value);\n    coins[coinId].price -= coinPriceIncrease;\n    coins[coinId].marketValue -= value;\n    if (coins[coinId].investors.length == 1) {\n      delete coins[coinId].investors[0];\n    } else {\n      for (uint j = investorIndex; j < coins[coinId].investors.length - 1; j++) {\n        coins[coinId].investors[j] = coins[coinId].investors[j + 1];\n      }\n    }\n    coins[coinId].investors.length--;\n  }\n\n  function sellCoin(uint16 coinId) public {\n    bool senderIsInvestor = false;\n    uint investorIndex = 0;\n    for (uint i = 0; i < coins[coinId].investors.length; i++) {\n      if (coins[coinId].investors[i] == msg.sender) {\n        senderIsInvestor = true;\n        investorIndex = i;\n        break;\n      }\n    }\n    if (senderIsInvestor) {\n      removeInvestor(coinId, investorIndex);\n    }\n  }\n\n  function retrieveFunds(uint amount) public {\n    assert(msg.sender == owner);\n    if (msg.sender == owner) {\n    //   address contractAddress = this;\n      owner.transfer(amount);\n    }\n  }\n    \n}",
  "sourcePath": "D:\\dapps\\pump-and-dump\\contracts\\PumpAndDump.sol",
  "compiler": {
    "name": "solc",
    "version": "0.4.23+commit.124ca40d.Emscripten.clang"
  },
  "schemaVersion": "2.0.0",
  "updatedAt": "2018-05-19T08:44:29.514Z"
}