{
  "contractName": "PumpAndDump",
  "abi": [
    {
      "inputs": [],
      "payable": false,
      "stateMutability": "nonpayable",
      "type": "constructor"
    },
    {
      "constant": false,
      "inputs": [
        {
          "name": "name",
          "type": "string"
        },
        {
          "name": "whitePaper",
          "type": "string"
        }
      ],
      "name": "createCoin",
      "outputs": [],
      "payable": true,
      "stateMutability": "payable",
      "type": "function"
    },
    {
      "constant": true,
      "inputs": [],
      "name": "getNumCoins",
      "outputs": [
        {
          "name": "",
          "type": "uint256"
        }
      ],
      "payable": false,
      "stateMutability": "view",
      "type": "function"
    },
    {
      "constant": true,
      "inputs": [
        {
          "name": "coinIndex",
          "type": "uint256"
        }
      ],
      "name": "getCoinInfoFromIndex",
      "outputs": [
        {
          "name": "",
          "type": "uint256"
        },
        {
          "name": "",
          "type": "string"
        },
        {
          "name": "",
          "type": "string"
        },
        {
          "name": "",
          "type": "uint256"
        },
        {
          "name": "",
          "type": "uint256"
        },
        {
          "name": "",
          "type": "address[]"
        }
      ],
      "payable": false,
      "stateMutability": "view",
      "type": "function"
    },
    {
      "constant": true,
      "inputs": [
        {
          "name": "id",
          "type": "uint256"
        }
      ],
      "name": "getCoinIndexById",
      "outputs": [
        {
          "name": "",
          "type": "uint256"
        }
      ],
      "payable": false,
      "stateMutability": "view",
      "type": "function"
    },
    {
      "constant": true,
      "inputs": [
        {
          "name": "coinId",
          "type": "uint256"
        },
        {
          "name": "userIndex",
          "type": "uint256"
        }
      ],
      "name": "getUserCoinMarketValue",
      "outputs": [
        {
          "name": "",
          "type": "uint256"
        }
      ],
      "payable": false,
      "stateMutability": "view",
      "type": "function"
    },
    {
      "constant": false,
      "inputs": [
        {
          "name": "coinId",
          "type": "uint256"
        }
      ],
      "name": "buyCoin",
      "outputs": [],
      "payable": true,
      "stateMutability": "payable",
      "type": "function"
    },
    {
      "constant": false,
      "inputs": [
        {
          "name": "coinId",
          "type": "uint256"
        }
      ],
      "name": "sellCoin",
      "outputs": [],
      "payable": false,
      "stateMutability": "nonpayable",
      "type": "function"
    },
    {
      "constant": true,
      "inputs": [],
      "name": "retrieveFunds",
      "outputs": [],
      "payable": false,
      "stateMutability": "view",
      "type": "function"
    }
  ],
  "bytecode": "0x6080604052662386f26fc10000600155662386f26fc1000060025566038d7ea4c68000600355655af3107a400060045534801561003b57600080fd5b50336000806101000a81548173ffffffffffffffffffffffffffffffffffffffff021916908373ffffffffffffffffffffffffffffffffffffffff160217905550610f188061008b6000396000f30060806040526004361061008e576000357c0100000000000000000000000000000000000000000000000000000000900463ffffffff168063172de6da146100935780632c6cae361461013557806361b20d8c146101625780638779257414610179578063992217e514610199578063b419bd17146101e4578063bc2595c51461020f578063e65031a014610250575b600080fd5b610133600480360381019080803590602001908201803590602001908080601f0160208091040260200160405190810160405280939291908181526020018383808284378201915050505050509192919290803590602001908201803590602001908080601f01602080910402602001604051908101604052809392919081815260200183838082843782019150505050505091929192905050506103bf565b005b34801561014157600080fd5b50610160600480360381019080803590602001909291905050506104f3565b005b34801561016e57600080fd5b506101776107f0565b005b61019760048036038101908080359060200190929190505050610857565b005b3480156101a557600080fd5b506101ce6004803603810190808035906020019092919080359060200190929190505050610979565b6040518082815260200191505060405180910390f35b3480156101f057600080fd5b506101f96109f7565b6040518082815260200191505060405180910390f35b34801561021b57600080fd5b5061023a60048036038101908080359060200190929190505050610a04565b6040518082815260200191505060405180910390f35b34801561025c57600080fd5b5061027b60048036038101908080359060200190929190505050610a5d565b60405180878152602001806020018060200186815260200185815260200180602001848103845289818151815260200191508051906020019080838360005b838110156102d55780820151818401526020810190506102ba565b50505050905090810190601f1680156103025780820380516001836020036101000a031916815260200191505b50848103835288818151815260200191508051906020019080838360005b8381101561033b578082015181840152602081019050610320565b50505050905090810190601f1680156103685780820380516001836020036101000a031916815260200191505b50848103825285818151815260200191508051906020019060200280838360005b838110156103a4578082015181840152602081019050610389565b50505050905001995050505050505050505060405180910390f35b600060015434101515156103d257600080fd5b6005805490508160000181905550828160010190805190602001906103f8929190610cff565b5081816002019080519060200190610411929190610cff565b506003548160030181905550348160040181905550600581908060018154018082558091505090600182039060005260206000209060060201600090919290919091506000820154816000015560018201816001019080546001816001161561010002031660029004610485929190610d7f565b50600282018160020190805460018160011615610100020316600290046104ad929190610d7f565b50600382015481600301556004820154816004015560058201816005019080546104d8929190610e06565b50505050600254600160008282540192505081905550505050565b600080600080600061050486610a04565b945060058581548110151561051557fe5b90600052602060002090600602016005019350600092505b83805490508310156107e8573373ffffffffffffffffffffffffffffffffffffffff1660058681548110151561055f57fe5b90600052602060002090600602016005018481548110151561057d57fe5b9060005260206000200160009054906101000a900473ffffffffffffffffffffffffffffffffffffffff1673ffffffffffffffffffffffffffffffffffffffff1614156107db576105ce8684610979565b91506005858154811015156105df57fe5b9060005260206000209060060201600501838154811015156105fd57fe5b9060005260206000200160009054906101000a900473ffffffffffffffffffffffffffffffffffffffff1673ffffffffffffffffffffffffffffffffffffffff166108fc839081150290604051600060405180830381858888f1935050505015801561066d573d6000803e3d6000fd5b5060045460058681548110151561068057fe5b906000526020600020906006020160030160008282540392505081905550816005868154811015156106ae57fe5b9060005260206000209060060201600401600082825403925050819055508290505b83805490508110156107a25783600182018154811015156106ed57fe5b9060005260206000200160009054906101000a900473ffffffffffffffffffffffffffffffffffffffff1660058681548110151561072757fe5b90600052602060002090600602016005018281548110151561074557fe5b9060005260206000200160006101000a81548173ffffffffffffffffffffffffffffffffffffffff021916908373ffffffffffffffffffffffffffffffffffffffff160217905550808060010191505080806001019150506106d0565b6005858154811015156107b157fe5b90600052602060002090600602016005018054809190600190036107d59190610e58565b506107e8565b828060010193505061052d565b505050505050565b6000809054906101000a900473ffffffffffffffffffffffffffffffffffffffff1673ffffffffffffffffffffffffffffffffffffffff163373ffffffffffffffffffffffffffffffffffffffff1614151561084857fe5b6000809054906101000a905050565b600061086282610a04565b905060058181548110151561087357fe5b906000526020600020906006020160030154341015151561089357600080fd5b6005818154811015156108a257fe5b90600052602060002090600602016005013390806001815401808255809150509060018203906000526020600020016000909192909190916101000a81548173ffffffffffffffffffffffffffffffffffffffff021916908373ffffffffffffffffffffffffffffffffffffffff160217905550503460058281548110151561092757fe5b90600052602060002090600602016004016000828254019250508190555060045460058281548110151561095757fe5b9060005260206000209060060201600301600082825401925050819055505050565b600080600080600260018601860281151561099057fe5b049250826005878154811015156109a357fe5b9060005260206000209060060201600401548115156109be57fe5b0491506005868154811015156109d057fe5b90600052602060002090600602016005018054905090508185820302935050505092915050565b6000600580549050905090565b600080600090505b600580549050811015610a565782600582815481101515610a2957fe5b9060005260206000209060060201600001541415610a4957809150610a57565b8080600101915050610a0c565b5b50919050565b60006060806000806060600587815481101515610a7657fe5b906000526020600020906006020160000154600588815481101515610a9757fe5b9060005260206000209060060201600101600589815481101515610ab757fe5b906000526020600020906006020160020160058a815481101515610ad757fe5b90600052602060002090600602016003015460058b815481101515610af857fe5b90600052602060002090600602016004015460058c815481101515610b1957fe5b9060005260206000209060060201600501848054600181600116156101000203166002900480601f016020809104026020016040519081016040528092919081815260200182805460018160011615610100020316600290048015610bbf5780601f10610b9457610100808354040283529160200191610bbf565b820191906000526020600020905b815481529060010190602001808311610ba257829003601f168201915b50505050509450838054600181600116156101000203166002900480601f016020809104026020016040519081016040528092919081815260200182805460018160011615610100020316600290048015610c5b5780601f10610c3057610100808354040283529160200191610c5b565b820191906000526020600020905b815481529060010190602001808311610c3e57829003601f168201915b5050505050935080805480602002602001604051908101604052809291908181526020018280548015610ce357602002820191906000526020600020905b8160009054906101000a900473ffffffffffffffffffffffffffffffffffffffff1673ffffffffffffffffffffffffffffffffffffffff1681526020019060010190808311610c99575b5050505050905095509550955095509550955091939550919395565b828054600181600116156101000203166002900490600052602060002090601f016020900481019282601f10610d4057805160ff1916838001178555610d6e565b82800160010185558215610d6e579182015b82811115610d6d578251825591602001919060010190610d52565b5b509050610d7b9190610e84565b5090565b828054600181600116156101000203166002900490600052602060002090601f016020900481019282601f10610db85780548555610df5565b82800160010185558215610df557600052602060002091601f016020900482015b82811115610df4578254825591600101919060010190610dd9565b5b509050610e029190610e84565b5090565b828054828255906000526020600020908101928215610e475760005260206000209182015b82811115610e46578254825591600101919060010190610e2b565b5b509050610e549190610ea9565b5090565b815481835581811115610e7f57818360005260206000209182019101610e7e9190610e84565b5b505050565b610ea691905b80821115610ea2576000816000905550600101610e8a565b5090565b90565b610ee991905b80821115610ee557600081816101000a81549073ffffffffffffffffffffffffffffffffffffffff021916905550600101610eaf565b5090565b905600a165627a7a7230582049224121103243aadf4145275ce44f94e958815dac353f2846ccfe1f0c927b7c0029",
  "source": "pragma solidity ^0.4.23;\n\ncontract PumpAndDump {\n\n  address owner;\n  uint newCoinFee = 0.01 ether;\n  uint newCoinFeeIncrease = 0.01 ether;\n  uint defaultCoinPrice = 0.001 ether;\n  uint coinPriceIncrease = 0.0001 ether;\n\n  struct Coin {\n    uint id;\n    string name;\n    string whitePaper;\n    uint price;\n    uint marketValue;\n    address[] investors;\n  }\n\n  Coin[] coins;\n\n  constructor() public {\n    owner = msg.sender;\n  }\n\n  function createCoin(string name, string whitePaper) public payable {\n    require(msg.value >= newCoinFee);\n    Coin storage newCoin;\n    newCoin.id = coins.length; \n    newCoin.name = name;\n    newCoin.whitePaper = whitePaper;\n    newCoin.price = defaultCoinPrice;\n    newCoin.marketValue = msg.value;\n    coins.push(newCoin);\n    newCoinFee += newCoinFeeIncrease;\n  }\n\n  function getNumCoins() public constant returns (uint) {\n    return coins.length;\n  }\n\n  function getCoinInfoFromIndex(uint coinIndex) public constant returns (uint, string, string, uint, uint, address[]) {\n    return (\n      coins[coinIndex].id,\n      coins[coinIndex].name,\n      coins[coinIndex].whitePaper,\n      coins[coinIndex].price,\n      coins[coinIndex].marketValue,\n      coins[coinIndex].investors\n    );\n  }\n\n  function getCoinIndexById(uint id) public constant returns (uint) {\n    for (uint i = 0; i < coins.length; i++) {\n        if (coins[i].id == id) {\n          return i;\n        }\n    }\n  }\n\n  function getUserCoinMarketValue(uint coinId, uint userIndex) public constant returns (uint) {\n      uint marketWeights = (userIndex * (userIndex + 1)) / 2;\n      uint atomWeight = coins[coinId].marketValue / marketWeights;\n      uint numInvestors = coins[coinId].investors.length;\n      return (numInvestors - userIndex) * atomWeight;\n  }\n\n  function buyCoin(uint coinId) public payable {\n    uint index = getCoinIndexById(coinId);\n    require(msg.value >= coins[index].price);\n    coins[index].investors.push(msg.sender);\n    coins[index].marketValue += msg.value;\n    coins[index].price += coinPriceIncrease;\n  }\n\n  function sellCoin(uint coinId) public {\n    uint coinIndex = getCoinIndexById(coinId);\n    address[] storage investors = coins[coinIndex].investors;\n    for (uint i = 0; i < investors.length; i++) {\n      if (coins[coinIndex].investors[i] == msg.sender) {\n        uint value = getUserCoinMarketValue(coinId, i);\n        coins[coinIndex].investors[i].transfer(value);\n        coins[coinIndex].price -= coinPriceIncrease;\n        coins[coinIndex].marketValue -= value;\n        // Remove coin\n        for (uint j = i; j < investors.length; j++) {\n          coins[coinIndex].investors[j] = investors[j + 1];\n          j++;\n        }\n        coins[coinIndex].investors.length--;\n        break;\n      }\n    }\n  }\n\n  function retrieveFunds() public view {\n    assert(msg.sender == owner);\n    if (msg.sender == owner) {\n      // address contractAddress = this;\n      // owner.transfer(contractAddress.balance)\n    }\n  }\n    \n}",
  "sourcePath": "D:\\dapps\\pump-and-dump\\contracts\\PumpAndDump.sol",
  "compiler": {
    "name": "solc",
    "version": "0.4.23+commit.124ca40d.Emscripten.clang"
  },
  "schemaVersion": "2.0.0",
  "updatedAt": "2018-05-16T08:58:04.830Z"
}