{
  "contractName": "PumpAndDump",
  "abi": [
    {
      "inputs": [],
      "payable": false,
      "stateMutability": "nonpayable",
      "type": "constructor"
    },
    {
      "constant": true,
      "inputs": [],
      "name": "getNewCoinFee",
      "outputs": [
        {
          "name": "",
          "type": "uint256"
        }
      ],
      "payable": false,
      "stateMutability": "view",
      "type": "function"
    },
    {
      "constant": true,
      "inputs": [
        {
          "name": "newId",
          "type": "uint16"
        }
      ],
      "name": "isCoinIdUnique",
      "outputs": [
        {
          "name": "",
          "type": "bool"
        }
      ],
      "payable": false,
      "stateMutability": "view",
      "type": "function"
    },
    {
      "constant": false,
      "inputs": [
        {
          "name": "id",
          "type": "uint16"
        },
        {
          "name": "name",
          "type": "string"
        }
      ],
      "name": "createCoin",
      "outputs": [],
      "payable": true,
      "stateMutability": "payable",
      "type": "function"
    },
    {
      "constant": true,
      "inputs": [],
      "name": "getCoinIds",
      "outputs": [
        {
          "name": "",
          "type": "uint16[]"
        }
      ],
      "payable": false,
      "stateMutability": "view",
      "type": "function"
    },
    {
      "constant": true,
      "inputs": [
        {
          "name": "coinId",
          "type": "uint16"
        }
      ],
      "name": "getCoinInfoFromId",
      "outputs": [
        {
          "name": "",
          "type": "string"
        },
        {
          "name": "",
          "type": "uint256"
        },
        {
          "name": "",
          "type": "uint256"
        },
        {
          "name": "",
          "type": "address[]"
        }
      ],
      "payable": false,
      "stateMutability": "view",
      "type": "function"
    },
    {
      "constant": true,
      "inputs": [
        {
          "name": "coinId",
          "type": "uint16"
        },
        {
          "name": "userIndex",
          "type": "uint256"
        }
      ],
      "name": "getUserCoinMarketValue",
      "outputs": [
        {
          "name": "",
          "type": "uint256"
        }
      ],
      "payable": false,
      "stateMutability": "view",
      "type": "function"
    },
    {
      "constant": false,
      "inputs": [
        {
          "name": "coinId",
          "type": "uint16"
        }
      ],
      "name": "buyCoin",
      "outputs": [],
      "payable": true,
      "stateMutability": "payable",
      "type": "function"
    },
    {
      "constant": false,
      "inputs": [
        {
          "name": "coinId",
          "type": "uint16"
        },
        {
          "name": "investorIndex",
          "type": "uint256"
        }
      ],
      "name": "removeInvestor",
      "outputs": [],
      "payable": false,
      "stateMutability": "nonpayable",
      "type": "function"
    },
    {
      "constant": false,
      "inputs": [
        {
          "name": "coinId",
          "type": "uint16"
        }
      ],
      "name": "sellCoin",
      "outputs": [],
      "payable": false,
      "stateMutability": "nonpayable",
      "type": "function"
    },
    {
      "constant": false,
      "inputs": [
        {
          "name": "amount",
          "type": "uint256"
        }
      ],
      "name": "retrieveFunds",
      "outputs": [],
      "payable": false,
      "stateMutability": "nonpayable",
      "type": "function"
    }
  ],
  "bytecode": "0x6080604052662386f26fc10000600155662386f26fc1000060025566038d7ea4c68000600355655af3107a400060045534801561003b57600080fd5b50336000806101000a81548173ffffffffffffffffffffffffffffffffffffffff021916908373ffffffffffffffffffffffffffffffffffffffff16021790555061122c8061008b6000396000f3006080604052600436106100a4576000357c0100000000000000000000000000000000000000000000000000000000900463ffffffff1680630c9a6c24146100a9578063168b6231146100f8578063270d13fb146101645780634c2db6d8146101ad578063aa0f46f6146101d1578063ad9657f41461020c578063d4d2af8d14610276578063e079e334146102a7578063e9922f12146102d2578063fc41491e146103d2575b600080fd5b3480156100b557600080fd5b506100e2600480360381019080803561ffff169060200190929190803590602001909291905050506103ff565b6040518082815260200191505060405180910390f35b34801561010457600080fd5b5061010d6104f9565b6040518080602001828103825283818151815260200191508051906020019060200280838360005b83811015610150578082015181840152602081019050610135565b505050509050019250505060405180910390f35b34801561017057600080fd5b50610193600480360381019080803561ffff169060200190929190505050610579565b604051808215151515815260200191505060405180910390f35b6101cf600480360381019080803561ffff1690602001909291905050506105f1565b005b3480156101dd57600080fd5b5061020a600480360381019080803561ffff1690602001909291908035906020019092919050505061074b565b005b610274600480360381019080803561ffff169060200190929190803590602001908201803590602001908080601f0160208091040260200160405190810160405280939291908181526020018383808284378201915050505050509192919290505050610abb565b005b34801561028257600080fd5b506102a5600480360381019080803561ffff169060200190929190505050610ca6565b005b3480156102b357600080fd5b506102bc610dd5565b6040518082815260200191505060405180910390f35b3480156102de57600080fd5b50610301600480360381019080803561ffff169060200190929190505050610ddf565b604051808060200185815260200184815260200180602001838103835287818151815260200191508051906020019080838360005b83811015610351578082015181840152602081019050610336565b50505050905090810190601f16801561037e5780820380516001836020036101000a031916815260200191505b50838103825284818151815260200191508051906020019060200280838360005b838110156103ba57808201518184015260208101905061039f565b50505050905001965050505050505060405180910390f35b3480156103de57600080fd5b506103fd60048036038101908080359060200190929190505050610f93565b005b600080600080600660008761ffff1661ffff16815260200190815260200160002060040180549050925061043d6001866110ac90919063ffffffff16565b83141561046a57600660008761ffff1661ffff1681526020019081526020016000206002015493506104f0565b6104a360026104956104866001876110ac90919063ffffffff16565b866110c890919063ffffffff16565b61110090919063ffffffff16565b91506104d682600660008961ffff1661ffff1681526020019081526020016000206003015461110090919063ffffffff16565b90506104ed818685036110c890919063ffffffff16565b93505b50505092915050565b6060600580548060200260200160405190810160405280929190818152602001828054801561056f57602002820191906000526020600020906000905b82829054906101000a900461ffff1661ffff16815260200190600201906020826001010492830192600103820291508084116105365790505b5050505050905090565b600080600090505b6005805490508110156105e6578261ffff166005828154811015156105a257fe5b90600052602060002090601091828204019190066002029054906101000a900461ffff1661ffff1614156105d957600091506105eb565b8080600101915050610581565b600191505b50919050565b600660008261ffff1661ffff16815260200190815260200160002060020154341015151561061e57600080fd5b600660008261ffff1661ffff1681526020019081526020016000206004013390806001815401808255809150509060018203906000526020600020016000909192909190916101000a81548173ffffffffffffffffffffffffffffffffffffffff021916908373ffffffffffffffffffffffffffffffffffffffff160217905550506106d134600660008461ffff1661ffff168152602001908152602001600020600301546110ac90919063ffffffff16565b600660008361ffff1661ffff16815260200190815260200160002060030181905550610726600454600660008461ffff1661ffff168152602001908152602001600020600201546110ac90919063ffffffff16565b600660008361ffff1661ffff1681526020019081526020016000206002018190555050565b600080600061075a85856103ff565b9250600660008661ffff1661ffff1681526020019081526020016000206004018481548110151561078757fe5b9060005260206000200160009054906101000a900473ffffffffffffffffffffffffffffffffffffffff1673ffffffffffffffffffffffffffffffffffffffff166108fc849081150290604051600060405180830381858888f193505050501580156107f7573d6000803e3d6000fd5b5061082b600454600660008861ffff1661ffff1681526020019081526020016000206002015461111690919063ffffffff16565b600660008761ffff1661ffff1681526020019081526020016000206002018190555061087e83600660008861ffff1661ffff1681526020019081526020016000206003015461111690919063ffffffff16565b600660008761ffff1661ffff168152602001908152602001600020600301819055506001600660008761ffff1661ffff16815260200190815260200160002060040180549050141561092857600660008661ffff1661ffff16815260200190815260200160002060040160008154811015156108f657fe5b9060005260206000200160006101000a81549073ffffffffffffffffffffffffffffffffffffffff0219169055610a55565b61095d6001600660008861ffff1661ffff1681526020019081526020016000206004018054905061111690919063ffffffff16565b91508390505b81811015610a5457600660008661ffff1661ffff16815260200190815260200160002060040161099d6001836110ac90919063ffffffff16565b8154811015156109a957fe5b9060005260206000200160009054906101000a900473ffffffffffffffffffffffffffffffffffffffff16600660008761ffff1661ffff168152602001908152602001600020600401828154811015156109ff57fe5b9060005260206000200160006101000a81548173ffffffffffffffffffffffffffffffffffffffff021916908373ffffffffffffffffffffffffffffffffffffffff1602179055508080600101915050610963565b5b610a8a6001600660008861ffff1661ffff1681526020019081526020016000206004018054905061111690919063ffffffff16565b600660008761ffff1661ffff16815260200190815260200160002060040181610ab3919061112f565b505050505050565b6001543410151515610acc57600080fd5b6144a88261ffff16101515610ae057600080fd5b60008151111515610af057600080fd5b610af982610579565b1515610b0457600080fd5b6001600660008461ffff1661ffff16815260200190815260200160002060000160006101000a81548160ff02191690831515021790555080600660008461ffff1661ffff1681526020019081526020016000206001019080519060200190610b6d92919061115b565b50600354600660008461ffff1661ffff1681526020019081526020016000206002018190555034600660008461ffff1661ffff16815260200190815260200160002060030181905550600660008361ffff1661ffff1681526020019081526020016000206004013390806001815401808255809150509060018203906000526020600020016000909192909190916101000a81548173ffffffffffffffffffffffffffffffffffffffff021916908373ffffffffffffffffffffffffffffffffffffffff16021790555050600582908060018154018082558091505090600182039060005260206000209060109182820401919006600202909192909190916101000a81548161ffff021916908361ffff16021790555050610c9c6002546001546110ac90919063ffffffff16565b6001819055505050565b600080600080925060009150600660008561ffff1661ffff16815260200190815260200160002060000160009054906101000a900460ff161515610ce957600080fd5b600090505b600660008561ffff1661ffff16815260200190815260200160002060040180549050811015610db9573373ffffffffffffffffffffffffffffffffffffffff16600660008661ffff1661ffff16815260200190815260200160002060040182815481101515610d5957fe5b9060005260206000200160009054906101000a900473ffffffffffffffffffffffffffffffffffffffff1673ffffffffffffffffffffffffffffffffffffffff161415610dac5760019250809150610db9565b8080600101915050610cee565b821515610dc557600080fd5b610dcf848361074b565b50505050565b6000600154905090565b60606000806060600660008661ffff1661ffff168152602001908152602001600020600101600660008761ffff1661ffff16815260200190815260200160002060020154600660008861ffff1661ffff16815260200190815260200160002060030154600660008961ffff1661ffff168152602001908152602001600020600401838054600181600116156101000203166002900480601f016020809104026020016040519081016040528092919081815260200182805460018160011615610100020316600290048015610ef55780601f10610eca57610100808354040283529160200191610ef5565b820191906000526020600020905b815481529060010190602001808311610ed857829003601f168201915b5050505050935080805480602002602001604051908101604052809291908181526020018280548015610f7d57602002820191906000526020600020905b8160009054906101000a900473ffffffffffffffffffffffffffffffffffffffff1673ffffffffffffffffffffffffffffffffffffffff1681526020019060010190808311610f33575b5050505050905093509350935093509193509193565b6000809054906101000a900473ffffffffffffffffffffffffffffffffffffffff1673ffffffffffffffffffffffffffffffffffffffff163373ffffffffffffffffffffffffffffffffffffffff16141515610feb57fe5b6000809054906101000a900473ffffffffffffffffffffffffffffffffffffffff1673ffffffffffffffffffffffffffffffffffffffff163373ffffffffffffffffffffffffffffffffffffffff1614156110a9576000809054906101000a900473ffffffffffffffffffffffffffffffffffffffff1673ffffffffffffffffffffffffffffffffffffffff166108fc829081150290604051600060405180830381858888f193505050501580156110a7573d6000803e3d6000fd5b505b50565b600081830190508281101515156110bf57fe5b80905092915050565b6000808314156110db57600090506110fa565b81830290508183828115156110ec57fe5b041415156110f657fe5b8090505b92915050565b6000818381151561110d57fe5b04905092915050565b600082821115151561112457fe5b818303905092915050565b8154818355818111156111565781836000526020600020918201910161115591906111db565b5b505050565b828054600181600116156101000203166002900490600052602060002090601f016020900481019282601f1061119c57805160ff19168380011785556111ca565b828001600101855582156111ca579182015b828111156111c95782518255916020019190600101906111ae565b5b5090506111d791906111db565b5090565b6111fd91905b808211156111f95760008160009055506001016111e1565b5090565b905600a165627a7a723058201af2e126e2340a6b09192b885a47bcc1afa6279836a933eb6be87e15bd9a09fd0029",
  "source": "pragma solidity ^0.4.23;\n\n// import \"github.com/OpenZeppelin/zeppelin-solidity/contracts/math/SafeMath.sol\";\nimport \"openzeppelin-solidity/contracts/math/SafeMath.sol\";\n\ncontract PumpAndDump {\n\n  using SafeMath for uint256;\n\n  address owner;\n  uint newCoinFee = 0.01 ether;\n  uint newCoinFeeIncrease = 0.01 ether;\n  uint defaultCoinPrice = 0.001 ether;\n  uint coinPriceIncrease = 0.0001 ether;\n  uint16[] coinIds;\n\n  struct Coin {\n    bool exists;\n    string name;\n    uint price;\n    uint marketValue;\n    address[] investors;\n  }\n\n  mapping (uint16 => Coin) coins;\n\n  constructor() public {\n    owner = msg.sender;\n  }\n\n  function getNewCoinFee() public constant returns (uint) {\n    return newCoinFee;\n  }\n\n  function isCoinIdUnique(uint16 newId) public constant returns (bool) {\n    for (uint i = 0; i < coinIds.length; i++) {\n      if (coinIds[i] == newId) {\n        return false;\n      }\n    }\n    return true;\n  }\n\n\n  function createCoin(uint16 id, string name) public payable {\n    require(msg.value >= newCoinFee);\n    require(id < 17576); // 26*26*26\n    require(bytes(name).length > 0);\n    require(isCoinIdUnique(id));\n    coins[id].exists = true;\n    coins[id].name = name;\n    coins[id].price = defaultCoinPrice;\n    coins[id].marketValue = msg.value; \n    coins[id].investors.push(msg.sender);\n    coinIds.push(id);\n    newCoinFee = newCoinFee.add(newCoinFeeIncrease);\n  }\n\n  function getCoinIds() public constant returns (uint16[]) {\n    return coinIds;\n  }\n\n  function getCoinInfoFromId(uint16 coinId) public constant returns (string, uint, uint, address[]) {\n    return (\n      coins[coinId].name,\n      coins[coinId].price,\n      coins[coinId].marketValue,\n      coins[coinId].investors\n    );\n  }\n\n  function getUserCoinMarketValue(uint16 coinId, uint userIndex) public constant returns (uint) {\n      uint numInvestors = coins[coinId].investors.length;\n      if (numInvestors == userIndex.add(1)) {\n        return coins[coinId].price;\n      } else {\n        uint numShares = (numInvestors.mul(numInvestors.add(1))).div(2);\n        uint atomWeight = coins[coinId].marketValue.div(numShares);\n        return (numInvestors - userIndex).mul(atomWeight);\n      }\n  }\n\n  function buyCoin(uint16 coinId) public payable {\n    require(msg.value >= coins[coinId].price);\n    coins[coinId].investors.push(msg.sender);\n    coins[coinId].marketValue = coins[coinId].marketValue.add(msg.value);\n    coins[coinId].price = coins[coinId].price.add(coinPriceIncrease);\n  }\n\n  function removeInvestor(uint16 coinId, uint investorIndex) public {\n    uint value = getUserCoinMarketValue(coinId, investorIndex);\n    coins[coinId].investors[investorIndex].transfer(value);\n    coins[coinId].price = coins[coinId].price.sub(coinPriceIncrease);\n    coins[coinId].marketValue = coins[coinId].marketValue.sub(value);\n    if (coins[coinId].investors.length == 1) {\n      delete coins[coinId].investors[0];\n    } else {\n      uint secondLastIndex = coins[coinId].investors.length.sub(1);\n      for (uint j = investorIndex; j < secondLastIndex; j++) {\n        coins[coinId].investors[j] = coins[coinId].investors[j.add(1)];\n      }\n    }\n    coins[coinId].investors.length = coins[coinId].investors.length.sub(1);\n  }\n\n  function sellCoin(uint16 coinId) public {\n    bool senderIsInvestor = false;\n    uint investorIndex = 0;\n    require(coins[coinId].exists);\n    for (uint i = 0; i < coins[coinId].investors.length; i++) {\n      if (coins[coinId].investors[i] == msg.sender) {\n        senderIsInvestor = true;\n        investorIndex = i;\n        break;\n      }\n    }\n    require(senderIsInvestor);\n    removeInvestor(coinId, investorIndex);\n  }\n\n  function retrieveFunds(uint amount) public {\n    assert(msg.sender == owner);\n    if (msg.sender == owner) {\n    //   address contractAddress = this;\n      owner.transfer(amount);\n    }\n  }\n    \n}",
  "sourcePath": "D:\\dapps\\pump-and-dump\\contracts\\PumpAndDump.sol",
  "compiler": {
    "name": "solc",
    "version": "0.4.23+commit.124ca40d.Emscripten.clang"
  },
  "schemaVersion": "2.0.0",
  "updatedAt": "2018-05-19T23:46:33.957Z"
}